:020000040800F2
:10000000D8060020CD010008750D00084D0A000833
:10001000710D0008810300080D2100080000000098
:10002000000000000000000000000000691500084A
:100030008503000800000000450F00085516000861
:10004000E7010008E7010008E7010008E7010008F0
:10005000E7010008E701000889030008E70100083C
:10006000C1030008FD03000891040008E70100082F
:10007000E7010008E7010008E7010008E7010008C0
:10008000E7010008E7010008E7010008E7010008B0
:10009000E7010008E7010008E7010008E7010008A0
:1000A000E7010008E7010008E7010008E701000890
:1000B000CD1600081917000855190008E7010008B7
:1000C000E7010008E7010008E7010008E701000870
:1000D000E701000811200008E7010008E701000817
:1000E000E7010008E7010008E7010008E701000850
:1000F000E7010008E7010008E7010008E701000840
:10010000E7010008E70100082D1A0008E7010008D0
:10011000E7010008E7010008E7010008CD1B00081F
:10012000E7010008E7010008E7010008E70100080F
:1001300000F002F800F03AF80AA090E8000C8244BF
:100140008344AAF10107DA4501D100F02FF8AFF29C
:10015000090EBAE80F0013F0010F18BFFB1A43F0A5
:1001600001031847302A0000502A0000103A24BF2B
:1001700078C878C1FAD8520724BF30C830C144BF0C
:1001800004680C607047000000230024002500264E
:10019000103A28BF78C1FBD8520728BF30C148BFEA
:1001A0000B6070471FB51FBD10B510BD00F031F8D2
:1001B0001146FFF7F7FF02F007F800F04FF803B41D
:1001C000FFF7F2FF03BC00F057F800000948804732
:1001D00009480047FEE7FEE7FEE7FEE7FEE7FEE729
:1001E000FEE7FEE7FEE7FEE704480549054A064B41
:1001F000704700006D16000831010008D80000208B
:10020000D8060020D8020020D8020020704770478E
:100210007047754600F02CF8AE4605006946534617
:1002200020F00700854618B020B5FFF7DDFFBDE8D8
:1002300020404FF000064FF000074FF000084FF04D
:10024000000B21F00701AC46ACE8C009ACE8C009DE
:10025000ACE8C009ACE8C0098D46704710B504464B
:10026000AFF300802046BDE81040FFF7A8BF0000B4
:10027000004870477400002001491820ABBEFEE71B
:1002800026000200704710B500F00AFC10BD70B5E2
:100290000446002600F0B6FC2546E11704EB116188
:1002A0000912A02202EB4101C8B200F077FC00F075
:1002B000F5FCE11704EB11610912A4EB0121C8B2AE
:1002C00000F06CFC00F0EAFC00F09CFCA12000F0C7
:1002D00065FC00F0E3FC002000F028FC064600F07E
:1002E000B7FC304670BD70B504460E4600F08AFC7F
:1002F0002546E11704EB11610912A02202EB41012E
:10030000C8B200F04BFC00F0C9FCE11704EB11612E
:100310000912A4EB0121C8B200F040FC00F0BEFCC1
:10032000304600F03BFC00F0B9FC00F091FC0A20E4
:1003300001F00EFF70BD10B5012000F051FE00204D
:1003400000F04EFE10BD000008B5014600200090F0
:10035000034800900098084400900098008808BD69
:10036000006C004008B500220092044A0092009AF6
:1003700002440092009A116008BD0000006C004029
:1003800000BFFEE77047000010B5012000F026F91D
:1003900080B1022001F0FAFE0748006820B9074842
:1003A0000068401C05490860012000F0B1F80120F8
:1003B00000F0B4F810BD0000000121423000002020
:1003C00010B5042000F00AF988B1012001F0C0FE48
:1003D0000748006828B9002006490870012006492E
:1003E0000870042000F094F8042000F097F810BD85
:1003F00008812242060000204300002010B508209A
:1004000000F0ECF8002835D0012001F0A1FE1A48D8
:10041000006848BB0120194908700121184801F003
:10042000EDFB01201749087017480068401C164969
:1004300008600846006800280DDD084600680628A8
:1004400009DA062008601148008840F001000F49D1
:10045000088002F06FF90C480068B0F5967F03DB66
:100460004FF4967008490860082000F051F8082001
:1004700000F054F810BD00000C812142370000202C
:100480000008004006000020000000202800002096
:1004900010B5102000F0A2F868B3012001F058FE5A
:1004A0001548006808BB0120144908700121144850
:1004B00001F0A4FB01201349087013480068401E96
:1004C000114908600846006806280EDA0020086016
:1004D0000E48008820F001000C490880084600887A
:1004E00020F00200088002F025F9102000F010F83A
:1004F000102000F013F810BD1081214236000020BA
:100500000008004006000020000000202800002015
:100510000149086070470000140401400149086067
:1005200070470000140401401CB50121084600F08A
:1005300037FD0120FFF7F2FF00208DF804000C20AA
:100540008DF80500012000908DF80600684600F047
:1005500059F80021084600F081F91020FFF7DEFF6E
:1005600000208DF804000C208DF80500102000906C
:1005700001208DF80600684600F044F804210120AF
:1005800000F06CF90820FFF7C9FF00208DF8040087
:100590000C208DF805000820009001208DF8060041
:1005A000684600F02FF80321012000F057F90420DD
:1005B000FFF7B4FF00208DF804000C208DF8050033
:1005C0000420009001208DF80600684600F01AF81B
:1005D0000221032000F042F91CBD0000014600206A
:1005E0000022074B1B6803EA0102054B14331B680A
:1005F0000B4013B10AB1012000E000207047000059
:1006000000040140002123498279002A3AD00A4699
:10061000126803689A430B461A600A1D1268036841
:100620009A430B1D1A60027911440A6803681A4341
:100630000A60184A0832126803689A43154B083357
:100640001A601A1D126803689A43124B0C331A6021
:100650004279102A0ED11A1F126803681A430D4BF3
:1006600008331A601A1D126803681A43094B0C33C9
:100670001A600DE00749427911440A6803681A4379
:100680000A6005E0027911440A6803689A430A6027
:1006900070470000000401400549096821F010017D
:1006A000034A116011460968014311607047000058
:1006B0000020024001460020034A106800F0380084
:1006C00008431060704700000020024008B5012177
:1006D0005D4800F06FF94FF4C850ADF800001020ED
:1006E0008DF8030003208DF802006946574800F09A
:1006F000D5F842F20300ADF8000010208DF8030099
:1007000003208DF802006946514800F0C7F84FF405
:100710000070ADF8000003208DF8020018208DF85D
:1007200003006946494800F0B9F84FF48060ADF81D
:10073000000004208DF803006946444800F0AEF83C
:100740004FF41070ADF8000003208DF80200102067
:100750008DF8030069463E4800F0A0F84FF40040D1
:10076000ADF8000003208DF8020010208DF8030082
:100770006946384800F092F84FF4E050ADF80000B8
:1007800003208DF8020010208DF8030069463048E0
:1007900000F084F84FF40040ADF8000003208DF81D
:1007A000020010208DF803006946284800F076F812
:1007B0000120ADF8000048208DF803006946234869
:1007C00000F06CF81820ADF8000048208DF8030008
:1007D0006946204800F062F80420ADF80000482087
:1007E0008DF8030069461C4800F058F88020ADF8E9
:1007F000000003208DF8020010208DF803006946E8
:10080000144800F04BF8C820ADF8000048208DF8DF
:10081000030069460D4800F041F83020ADF80000B3
:1008200048208DF803006946094800F037F847F280
:100830000100ADF8000048208DF803006946054826
:1008400000F02CF808BD0000000230000008014054
:1008500000100140000C01400014014030B500229E
:100860008B071C0F0F2303FA04F20B4B8C1053F869
:1008700024309343084C8D1044F8253023468C10C7
:1008800053F824308C07240F00FA04F42343024C5D
:100890008D1044F8253030BD080001402DE9F041AD
:1008A000024600250026002000230024002791F89E
:1008B00003C00CF00F0591F803C00CF0100CBCF154
:1008C000000F03D091F802C04CEA050591F800C072
:1008D000BCF1000F31D0146800202BE04FF0010C68
:1008E0000CFA00F3B1F800C00CEA03069E4220D1D6
:1008F00083004FF00F0C0CFA03F7BC4305FA03FC1E
:100900004CEA040491F803C0BCF1280F06D14FF063
:10091000010C0CFA00FCC2F814C00AE091F803C004
:10092000BCF1480F05D14FF0010C0CFA00FCC2F8E5
:1009300010C0401C0828D1D31460B1F800C0BCF12D
:10094000FF0F34DD546800202EE000F1080C4FF05A
:10095000010808FA0CF3B1F800C00CEA03069E4245
:1009600021D183004FF00F0C0CFA03F7BC4305FABA
:1009700003FC4CEA040491F803C0BCF1280F05D134
:1009800000F1080C08FA0CF8C2F8148091F803C0C2
:10099000BCF1480F07D100F1080C4FF0010808FA2C
:1009A0000CF8C2F81080401C0828CED35460BDE873
:1009B000F0810000F0B50A46002300240021002544
:1009C00000F00046B6F1004F02D11D4EF16901E082
:1009D0001B4E7168C0F3034583B200F44016B6F5B0
:1009E000401F08D121F07061154E766826F07066C0
:1009F000134F7E6012E000F48016B6F5801F06D11A
:100A0000032606FA05F4A14341F0706106E0460DA5
:100A1000360103FA06F6B14341F0706122B1460D8A
:100A2000360103FA06F6314300F00046B6F1004FF6
:100A300002D1034EF16101E0014E7160F0BD000092
:100A400000000140416170470161704700BFFEE74F
:100A500010B500200F4908600F48006820F0F00032
:100A60000D4908600846006840F03000086000202A
:100A70000A49C1F8A401022001F088FB01200549C0
:100A80000860052001F082FB00200449C1F8A001A4
:100A900010BD0000A0812142040C014000802142D1
:100AA0000C48806940F008000A4988610A480068DB
:100AB00020F0FF00084908600846006840F0330055
:100AC000086005480830006840F440700249083169
:100AD0000860704700100240040C014010B500206F
:100AE0000F4908600F48006820F0F0000D490860C9
:100AF0000846006840F03000086001200A49C1F84B
:100B0000A401022001F042FB0120054908600520F4
:100B100001F03CFB00200449C1F8A00110BD000019
:100B2000A0812142040C01400080214270B505469D
:100B300000241748006820F0F000154908600846B6
:100B4000006840F080000860002616E0002011498F
:100B50000860022001F01AFB01200F49C1F8A00132
:100B60006006040E0B487C38006808B1601CC4B2F3
:100B7000012001F00BFB701CC6B2082EE6DB15B994
:100B8000FFF7ACFF01E0FFF763FF204670BD0000F8
:100B9000040C0140A08121420080214270B504462E
:100BA0001548006820F0F000134908600846006806
:100BB00040F030000860002010490860002517E070
:100BC000E0090E49091D08606006040E022001F0CC
:100BD000DDFA01200A49C1F8A001022001F0D6FA8D
:100BE000002006490860022001F0D0FA681CC5B256
:100BF000082DE5DB70BD0000040C0140A0812142FE
:100C00000080214210B50F48006820F0F0000D4927
:100C100008600846006840F03000086001200A497A
:100C200008600A49C1F8A001052001F0AFFA0020D0
:100C300005490860062001F0A9FA00200349C1F81F
:100C4000A00110BD040C0140A4812142008021427A
:100C500010B50F48006820F0F0000D490860084604
:100C6000006840F03000086000200A4908600A4926
:100C7000C1F8A401062001F089FA012005490860A5
:100C80000549C1F8A401062001F080FA10BD00005A
:100C9000040C0140A08121420080214210B50024B3
:100CA0001448006820F0F000124908600846006807
:100CB00040F08000086001200F49086001F066FAEA
:100CC00001200E49C1F8A00101F060FA07E0601CA4
:100CD000C4B2FA2C03DDFFF7BBFF012010BD0648AC
:100CE000803800680028F2D10349091F086000BF5E
:100CF000F4E70000040C0140A4812142008021425D
:100D00000146CA1701EB92729210A1EB820292B9CE
:100D1000642091FBF0F200FB121050B94FF4C87040
:100D200091FBF0F200FB121008B90120704700207F
:100D3000FCE70120FAE70020F8E7000010B54FF4C7
:100D400080510948FFF780FE4FF400610648FFF725
:100D50007BFE4FF480610448FFF776FE4FF40041BC
:100D60000248FFF771FE10BD00100140000801406D
:100D700000BFFEE7704708B54FF4A06000F0D2F85E
:100D800006208DF8000000208DF8010001208DF86C
:100D900002008DF80300684600F08CF809208DF8F9
:100DA000000002208DF8010001208DF802008DF86E
:100DB0000300684600F07EF80A208DF8000002204B
:100DC0008DF8010001208DF802008DF803006846BF
:100DD00000F070F808208DF8000001208DF8010067
:100DE00000208DF8020001208DF80300684600F015
:100DF00061F825208DF8000000208DF80100012009
:100E00008DF802008DF80300684600F053F81D20AD
:100E10008DF8000001208DF801008DF802008DF89A
:100E20000300684600F046F81C208DF80000002002
:100E30008DF801008DF8020001208DF8030068464E
:100E400000F038F832208DF8000002208DF8010003
:100E500001208DF802008DF80300684600F02AF8A2
:100E60001E208DF8000003208DF801008DF802008F
:100E700001208DF80300684600F01CF836208DF83C
:100E8000000001208DF801008DF802008DF80300AC
:100E9000684600F00FF837208DF8000001208DF82B
:100EA00001008DF802008DF80300684600F002F89A
:100EB00008BD000070B5002100230F22C47804B3E0
:100EC000154C246804F4E064C4F5E064210AC1F11F
:100ED0000403CA40447804FA03F18478144021439F
:100EE00009010E4C0678A155047804F01F05012471
:100EF000AC4005786D11AD0005F1E025C5F8004165
:100F000009E0047804F01F050124AC40044D067884
:100F1000761145F8264070BD0CED00E000E400E0DD
:100F200080E100E002490143024A1160704700007D
:100F30000000FA050CED00E001490862704700006E
:100F400000000E427047000001460020034A50682E
:100F500020F44040084350607047000000100240F9
:100F600029B1064AD2690243044BDA6104E0034A1C
:100F7000D2698243014BDA617047000000100240E1
:100F800029B1064A12690243044B1A6104E0034A7C
:100F900012698243014B1A61704700000010024041
:100FA00029B1064A92690243044B9A6104E0034A5C
:100FB00092698243014B9A61704700000010024021
:100FC00029B1064AD2680243044BDA6004E0034ABE
:100FD000D2688243014BDA60704700000010024083
:100FE00001490860704700004004424210B54FF4C8
:100FF000803000F069F800F0EDF80446012C27D1AC
:10100000002000F055F8A00200F09EF8002000F04B
:10101000A7F80020FFF798FF0220FFF74BFB1020F6
:10102000FFF73AFB4FF4E011200400F0ABF8012089
:1010300000F0A2F800BF392000F014F80028FAD020
:10104000022000F0BBF800BF00F02AF80828FBD10E
:1010500001213C20FFF7A4FF01210846FFF7A0FF74
:1010600010BD000010B501460022002300204A11E7
:10107000012A02D1094C236806E0022A02D1074C5A
:10108000236A01E0054C636A01F01F0201249440C9
:101090001C400CB1012000E0002010BD00100240F7
:1010A0000248406800F00C00704700000010024049
:1010B00001460020034A506820F0F00008435060C9
:1010C00070470000001002401149096821F4803186
:1010D0000F4A11601146096821F480211160B0F5B2
:1010E000803F03D0B0F5802F0ED106E00849096893
:1010F00041F48031064A116007E00549096841F46E
:10110000A021034A116000E000BF00BF704700004B
:101110000010024000210B4A11700A4A203A82F85E
:101120002010012802D0042808D103E00121054A3B
:10113000117004E00521034A117000E000BF00BFF8
:10114000704700002010024001460020034A50680A
:1011500020F4E06008435060704700000010024037
:1011600001460020034A506820F4605040EAC10064
:101170005060704700100240014908667047000047
:101180000000424202460020044B586820F47C10C4
:1011900042EA01031843014B5860704700100240B7
:1011A00001490860704700003C0442420249096A54
:1011B0000143014A116270470010024001460020BD
:1011C000034A506820F00300084350607047000055
:1011D0000010024038B5002000900024002500BF18
:1011E0003120FFF73FFF05460098401C0090009813
:1011F000B0F5A06F01D0002DF2D03120FFF732FF03
:1012000008B1012400E00024204638BD10B50121BA
:101210004FF0C050FFF7A4FE0120FFF78DFEFFF74F
:101220008AF80120FFF776FF00BF4120FFF71AFF81
:101230000028FAD04FF48070FFF7B8FF0120FFF7C5
:10124000AFFF00F07FF900F073F90121084600F0CC
:10125000E3F800F06DF947F6FF7000F059F900F07F
:1012600067F910BD0348008840F01000014908806C
:101270007047000004280040034800884FF6EF71D3
:1012800008400149088070470428004070B50026D6
:101290000024002500F07AF806463848B6FBF0F442
:1012A00037480088A0423CD035490C8040F2B275E6
:1012B00010E02846FFF724FD40B1B4F5B77F02D314
:1012C000A4F5B77404E0681C85B206E0A4F26D14BE
:1012D000681C85B2B4F5B67FEBD800BF294885807D
:1012E000002516E027498888FFF70AFD30B1012D57
:1012F00004D11D2C01D31D3C09E00CE02248405DC7
:10130000A04203D82048405D241A00E003E0681C96
:1013100085B21C2CE6D200BF681C1A498871601C7B
:10132000C8711648B6FBF0F100FB11644FF4616020
:10133000B4FBF0F0134908704FF46160B4FBF0F1B6
:1013400000FB11403C21B0FBF1F00E4948704FF416
:101350006160B4FBF0F100FB11403C21B0FBF1F205
:1013600001FB1200074988700B46DA799979988851
:1013700000F016F803490872002070BD805101008A
:101380004E00002068000020882B00080021034840
:101390000188001F008841EA004070471C28004077
:1013A000F0B503460C461546642093FBF0F0C6B238
:1013B000642093FBF0F700FB1730C1B2132E02DD5F
:1013C00001F16400C1B20846CF1701EB977701EB3A
:1013D000A707BAB2072092FBF0F700FB172082B2F2
:1013E0005719601EDFF82CC01CF80000384482B288
:1013F000CF1701EB9777BF10A1EB87071FB9032C1D
:1014000001DA501E82B2072092FBF0F700FB172092
:10141000C0B2F0BD7C2B000829B1064A12880243F5
:10142000044B1A8004E0034A12888243014B1A805D
:1014300070470000002800402DE9F05F06460F4687
:1014400090469946DDE90AAB002440F2B27086422C
:1014500003DB40F63300864202DD0120BDE8F09F49
:1014600040F2B2750AE02846FFF74AFC10B11D4869
:10147000044401E01C480444681C85B2B542F2DB18
:10148000781EC7B2002510E01848405D40F2A32145
:10149000484304EBC0143046FFF732FC18B1012D6D
:1014A00001D113480444681C85B2BD42ECDBA8F1AD
:1014B000010040F2A321484304EBC014C9EB4910DA
:1014C000C0EB092004EB0014CAEB0A1004EB800403
:1014D0005C4400F02DF8204600F00CF800F028F8ED
:1014E0000020BBE70085E2018033E101882B000882
:1014F0008051010000B50246FFF7B4FE100C03490D
:101500000880091D0A80FFF7B7FE00BD18280040BB
:1015100000B50246FFF7A6FEC2F303400349088068
:10152000091D0A80FFF7A8FE00BD00000828004042
:1015300000BF0348008800F020000028F9D0704761
:1015400004280040074800884FF6F7710840054915
:10155000088000BF0348008800F008000028F9D088
:101560007047000004280040704710B500F002F8F2
:1015700010BD00000CB500200190009033480068B9
:1015800040F480303149086000BF3048006800F402
:10159000003000900198401C0190009818B9019803
:1015A000B0F5A06FF1D12948006800F4003010B107
:1015B0000120009001E0002000900098012843D114
:1015C0002348006840F01000214908600846006880
:1015D00020F0030008600846006840F00200086040
:1015E0001A484068194948600846406848600846FB
:1015F000406840F4806048600846406820F47C10F1
:1016000048600846406840F4E810486008460068B2
:1016100040F08070086000BF0C48006800F0007067
:101620000028F9D00948406820F0030007494860C5
:101630000846406840F00200486000BF0348406828
:1016400000F00C000828F9D10CBD00000010024089
:10165000002002400448006820B103480068401E92
:1016600001490860704700002400002010B51348AD
:10167000006840F0010011490860084640681049C0
:1016800008400E494860084600680E4908400B496A
:1016900008600846006820F480200860084640681A
:1016A00020F4FE0048604FF41F008860FFF75DFFE4
:1016B0004FF000600449086010BD000000100240B7
:1016C0000000FFF8FFFFF6FE08ED00E04FF080405D
:1016D000008A00F0010080B10C48006808B90120C0
:1016E00000E00020094908600948D0F8980108B9CD
:1016F000012000E00020074908604FF08040008A88
:1017000020F001004FF0804108827047BC812142E7
:1017100000002242980122422DE9F04182480088CF
:1017200000F0010000287CD080480078401C7F49F0
:101730000870084600780E2801DB0A2008707C48F3
:10174000007830B1012807D0022809D003280DD134
:1017500009E0784804880AE07748008884B206E007
:101760007648048803E07648048800E000BF00BFA4
:101770006E4800780A2838D14FF47A7094FBF0F064
:101780000A2190FBF1F201FB120000F0FF084FF478
:1017900000416C48FFF758F96548007830B10128DE
:1017A0000AD002280DD0032816D110E06648807AAE
:1017B00066490880088010E06348C07A6349088061
:1017C0000BE0614810F808006049088005E05E48B9
:1017D000007B5E49088000E000BF00BF00F06EFFA4
:1017E0004FF480515A48FFF72DF9504800780B28E4
:1017F0004ED1642094FBF0F00A2190FBF1F201FB42
:101800001200C5B24FF480515148FFF71DF9484806
:10181000007838B101280ED0022815D0032821D134
:101820001BE079E015B94848807A01E04648405D00
:101830004649088017E015B94348807A01E04248DC
:10184000405D424908800EE015B93F48807A01E0CA
:101850003D48405D3D49088005E03B48407B3B49B1
:10186000088000E000BF00BF31480078022804D1A2
:101870003648008820F0800001E034480088334971
:10188000088000F01BFF4FF400613148FFF7DAF8E1
:10189000264800780C2825D10A2094FBF0F00A2174
:1018A00090FBF1F201FB1200C7B24FF4006128482F
:1018B000FFF7CAF82448C05D244908801C48007816
:1018C000022804DA0846008820F0800001E01F4862
:1018D00000881E49088000F0F1FE4FF480611C482A
:1018E000FFF7B0F8114800780D2815D10A2094FBB5
:1018F000F0F100FB1140C6B24FF480611448FFF7CD
:10190000A3F81148805D1149088000F0D7FE4FF41C
:1019100000410C48FFF796F80348008820F00100CA
:1019200001490880BDE8F081100400403500002026
:101930000600002004000020000000200C00002011
:101940000E00002000080140130000202A000020A3
:101950000010014010B52F48008800F00100002859
:1019600050D02D480068401C2B490860084600688C
:10197000142847D92948007820B3084600680A216E
:10198000B0FBF1F02649096808442549086008467B
:10199000006800280DDD08460068062809DA0620E0
:1019A00008602048008840F001001E49088000F0CF
:1019B000C1FE1B480068B0F5967F03DB4FF49670BC
:1019C0001749086018480078E0B1134800680A21F8
:1019D000B0FBF1F012490968081A1149086008467D
:1019E000006806280EDA002008600E48008820F003
:1019F00001000C4908800846008820F00200088099
:101A000000F098FE0348008820F00100014908809A
:101A100010BD0000100800403800002037000020F2
:101A20000000002028000020360000202DE9F047AB
:101A30004FF000095648008800F0010000287DD0D2
:101A4000544800685449554A127841F822005348D6
:101A50000078401C5149087000204E4908605048E9
:101A6000007888B14F48007870B94F480078401C22
:101A70004D49087008460078142805DD01204949C1
:101A8000087000204849087044480078052821DD86
:101A90000020424908708146002407E03E4830F8A3
:101AA000240048441FFA80F9601CC4B2052CF5DB01
:101AB000052099FBF0F01FFA80F9484600F0F7FF87
:101AC00007463A4A3A4B00F06DFE054600F0C2FF69
:101AD0003849088038480078012822D13748006802
:101AE000142190FBF1F038B13448006890FBF1F01C
:101AF00033490968084402E031480068401C304915
:101B00000860084600682D490968884209DB2B48AF
:101B100000682B49086000202749087001202049EF
:101B200008702848007801282AD124480068142128
:101B300090FBF1F048B12148006800E020E090FB04
:101B4000F1F01F490968081A02E01D480068401EAC
:101B50001B49086008460068062811DC062008605A
:101B60000020184908701848008820F00100164924
:101B700008800846008820F00200088000F0DAFDA6
:101B80000348008820F0010001490880BDE8F08783
:101B9000100C0040300000205400002034000020D1
:101BA0003D000020400000202D0000209A999999C6
:101BB00099193D40040000203C0000200000002056
:101BC000080000203E000020280000200448008873
:101BD0000348008820F00100014908807047000098
:101BE0001014004021B1028842F08002028004E01B
:101BF00002884FF67F731A400280704721B1028835
:101C000042F00102028004E002884FF6FE731A409F
:101C10000280704710B504466848844208D101210B
:101C2000C014FFF7CDF90021E014FFF7C9F9C4E0B3
:101C3000B4F1804F08D101210846FFF7A1F9002136
:101C40000120FFF79DF9B8E05D48844208D10121E9
:101C50000220FFF795F900210220FFF791F9ACE08F
:101C60005848844208D101210420FFF789F9002156
:101C70000420FFF785F9A0E05348844208D10121F0
:101C80000820FFF77DF900210820FFF779F994E09B
:101C90004E48844208D101211020FFF771F900213C
:101CA0001020FFF76DF988E04948844208D10121EE
:101CB0002020FFF765F900212020FFF761F97CE083
:101CC0004448844208D101214014FFF779F90021EA
:101CD0006014FFF775F970E03F48844209D1012193
:101CE000C804FFF76DF900214FF40020FFF768F9F1
:101CF00063E03A48844209D101210805FFF760F901
:101D000000214FF48010FFF75BF956E0344884421D
:101D100009D101214805FFF753F900214FF40010C4
:101D2000FFF74EF949E02F48844208D101214020B5
:101D3000FFF726F900214020FFF722F93DE02A486D
:101D4000844208D101218020FFF71AF90021802068
:101D5000FFF716F931E02548844208D101218015AA
:101D6000FFF70EF90021A015FFF70AF925E020483A
:101D7000844209D101210804FFF722F900214FF420
:101D80008030FFF71DF918E01A48844209D101217B
:101D90004804FFF715F900214FF40030FFF710F960
:101DA0000BE01548844208D101218804FFF708F9A7
:101DB00000214FF48020FFF703F910BD002C0140F3
:101DC0000004004000080040000C004000100040EB
:101DD0000014004000340140004C0140005001401C
:101DE0000054014000180040001C0040002000404A
:101DF0000040014000440140004801401AB183897D
:101E00000B43838102E083898B4383817047000009
:101E1000002202881D4B98420ED01D4B98420BD0D9
:101E2000B0F1804F08D01B4B984205D01A4B984216
:101E300002D01A4B984204D14FF68F731A404B8848
:101E40001A43174B984207D0164B984204D04FF6CE
:101E5000FF431A40CB881A4302808B8883850B8806
:101E600003850A4B98420BD0094B984208D00E4B81
:101E7000984205D00D4B984202D00D4B984201D1AB
:101E80000B7A03860123838270470000002C0140F7
:101E9000003401400004004000080040000C0040F5
:101EA0000010004000140040004001400044014088
:101EB000004801400EB501210846FFF751F84FF0E8
:101EC0008040FFF7A7FE124800681249B1FBF0F00E
:101ED000401E80B2ADF804000820ADF800000020DC
:101EE000ADF80600ADF8020069464FF08040FFF7FC
:101EF0008FFF01218807FFF775FE01221146900729
:101F0000FFF77CFF01218807FFF778FE0EBD000078
:101F1000000000204C3B05000EB501210220FFF718
:101F20001FF81048FFF776FE0920ADF8040041F6CF
:101F30001F40ADF800000020ADF80600ADF802002B
:101F400069460848FFF764FF01210648FFF74AFE8B
:101F5000012211460348FFF751FF01210148FFF715
:101F60004DFE0EBD000400400EB501210420FEF719
:101F7000F7FF1148FFF74EFE4FF47A70ADF80400FA
:101F800041F61F40ADF800000020ADF80600ADF8A6
:101F9000020069460848FFF73BFF01210648FFF7AA
:101FA00021FE012211460448FFF728FF00210248C4
:101FB000FFF724FE0EBD0000000800400EB5012111
:101FC0000820FEF7CDFF1148FFF724FE40F2E7306E
:101FD000ADF8040041F61F40ADF800000020ADF858
:101FE0000600ADF8020069460848FFF711FF01211D
:101FF0000648FFF7F7FD012211460448FFF7FEFEF1
:1020000001210248FFF7FAFD0EBD0000000C004060
:1020100010B540F22551124800F049F8012804D1CA
:1020200040F225510E4800F026F840F227710C4886
:1020300000F03DF8012804D140F22771084800F073
:102040001AF80821064800F025F8012806D10821D1
:10205000034800F007F8024800F053F810BD0000F4
:102060000038014001F40072B2F5007F00D100BFDA
:10207000CA430280704710B50022002340F66A145C
:10208000A14200D100BF0A1201249440A3B2DC4354
:10209000048010BD02460020B1F5007F00D100BFD2
:1020A00013880B400BB1012000E00020704770B591
:1020B0000246002400230025002040F66A16B142A3
:1020C00000D100BFC1F3421501F01F03012606FA3B
:1020D00003F3012D02D19689334006E0022D02D18F
:1020E000168A334001E0968A33400C12012606FA24
:1020F00004F41688344013B10CB1012000E0002034
:1021000070BD01468888C0F30800704700BFFEE735
:102110004FF0E021096921F004014FF0E022116144
:10212000C21700EB5272C2F3C702074B1A7019466E
:10213000097801EB4102C2EBC1114FF6FF7202EACE
:10214000C101024A11807047500000205200002057
:1021500001460D4A12884A434FF0E0235A6100229B
:102160009A6101221A6100BF4FF0E022106900F06D
:1021700001021AB100F48032002AF5D000224FF09B
:10218000E0231A619A6170475200002001460D4A0F
:1021900012784A434FF0E0235A6100229A610122EB
:1021A0001A6100BF4FF0E022106900F001021AB17D
:1021B00000F48032002AF5D000224FF0E0231A61AB
:1021C0009A617047500000201CB5002500260027AA
:1021D000FFF74CFAFEF70AFFFEF778FAFEF7CBFDA1
:1021E000FEF7ACFDFFF798FEFFF764FEFFF7E6FE93
:1021F000FFF7BAFEFEF798F94820FFF789FFFEF7D0
:1022000042F80120FE490860FE480078FE49088037
:102210000020FE49088000F08DFA00F04FFA0420FB
:10222000FEF792F8AB2815D0FEF7F0FF002015213D
:1022300003460122CDE9001011464FF47A70FFF7F2
:10224000FBF8AB210420FEF78DF800211020FEF7EB
:1022500089F808E001214FF0C050FEF781FE102000
:10226000FEF772F807460A20FEF711F805466420CB
:10227000FEF70DF8064605EB0620E5490860E34841
:10228000008820F00100E14908800846008820F01D
:102290000200088000F04EFA0120DE490860DE49A5
:1022A000C1F8BC01DB490C390860FEF7EFFFDB48E1
:1022B0004078DB49087008460078DA490870F4E194
:1022C000D948007801282DD10020D7490870CC4981
:1022D0000860D648006820F00100D44908606420F6
:1022E000FFF736FFCA480468E01704EB10600012DD
:1022F000A4EB0020C1B20A20FDF7F5FFC448046832
:10230000E01704EB1060C0F307216420FDF7EBFF3A
:102310000120C149C1F89C01C448006840F0010097
:10232000C2490860B6488C38006860B1C04800787F
:1023300048B10020BE4908700021BE48FFF75EFC8E
:102340000020BD490860AE489038006860B1BB48C5
:10235000007848B10020B94908700021B548FFF75E
:102360004DFC0020B4490860B548006820BB05203A
:10237000FFF7EEFEB2480068F0B9B2480078D8B96D
:102380000020B14908700120AE490870AF490870BB
:102390000020AF490870AF490870AF4908709B48EA
:1023A000008840F00100994908800846008840F004
:1023B0000200088000F0BEF9A1480068B0B1052015
:1023C000FFF7C6FE9E48006880B19F48007868B954
:1023D00000209C4908709D4908709D4908709D49DE
:1023E000087001209C4908709749087094480C3087
:1023F0000068E0B10520FFF7ABFE91480C300068A3
:10240000A8B1032095490870012095490880002053
:10241000944908707D48007800F0040038B97B4882
:10242000008840F004007949088000F083F984486E
:102430000C300068002870D10520FFF789FE804825
:102440000C300068A8B98748007890B90120854908
:1024500008700020814908706C48007800F0040082
:1024600038B16A48008820F004006849088000F00C
:1024700061F973480C30006828BB7648007810B3C7
:102480007648007801281ED061480068764909889E
:10249000401A052806DC744800885D490968401A1E
:1024A000052810DD03206D49087002206C49088062
:1024B00001206E4908705548008840F004005349D7
:1024C000088000F037F95E480C30006828BB61488E
:1024D000007810B34E48006863490988401A0528FF
:1024E0001BDC614800884A490968401A052814DC49
:1024F0005E48007888B10020584908705B49087030
:102500004248007800F0040038B14048008820F0CC
:1025100004003E49088000F00DF9FEF737FF5449EA
:102520000860084600683C21B0FBF1F201FB120094
:1025300010BB5048007801281ED100204D4908707A
:1025400037480078374908703D480068A0B9012035
:10255000FEF7F2FC1020FDF7F7FE401C464908800C
:10256000084601881020FDF7FDFE1020FDF7ECFE67
:1025700007460020FEF7E0FC3D4800680A21B0FB5A
:10258000F1F201FB120010B101203A490870B7F5D1
:10259000166F08D908203249088003202F49087097
:1025A00001203649087035480078E8B114488C3865
:1025B0000068C8B9124890380068A8B900202F49AF
:1025C000087026490870FEF721FE002015210346F9
:1025D0000122CDE9001011464FF47A70FEF72CFF6E
:1025E00000211020FDF7BEFE1948007830B10848E0
:1025F00000682349B1FBF0F0401E43E046E00000D4
:102600009C812142130000202A0000202800002085
:1026100000000020A4012242008021426800002026
:102620004400002045000020430000200004014039
:10263000360000200008004038000020370000204D
:102640000C01214241000020420000203C000020FB
:102650003D000020400000203E0000200600002039
:102660000E000020120000200400002010000020B6
:10267000480000204C0000204600002011000020EF
:102680004C3B05004FF0804188850EE007480078FC
:1026900010B90748007840B1064800680649B1FB08
:1026A000F0F0401E4FF08041888509E63C00002094
:1026B0003E000020080000204C3B050010B500241F
:1026C00021E0C4F10F010120884018490988084021
:1026D00028B14FF480511648FEF7B6F904E04FF4E4
:1026E00080511348FEF7AEF94FF480711048FEF7A1
:1026F000ABF96420FFF74AFD4FF480710C48FEF7F8
:10270000A1F9601CC4B2102CDBDB6420FFF73EFD96
:102710004FF400610648FEF797F96420FFF736FD95
:102720004FF400610248FEF78DF910BD2A00002029
:102730000008014010B500241FE0C4F10F01012082
:10274000884016490988084020B102211448FEF744
:102750007BF903E002211248FEF774F94FF40051AF
:102760000F48FEF771F96420FFF710FD4FF4005198
:102770000B48FEF767F9601CC4B2102CDDDB642047
:10278000FFF704FD01210648FEF75EF96420FFF71C
:10279000FDFC01210248FEF755F910BD280000207C
:1027A000001001402DE9C04130B4DFF8A0C23CEA7E
:1027B000111418BF3CEA131400F0EC8081EA030501
:1027C0001CEA111444EAD57418BF1CEA131500F072
:1027D000C780A4EB05044FF0004545EAC12145EA56
:1027E000C32341EA505143EA525304F17F749942A2
:1027F00004F500344FEAC0204FEAC22208BF9042DD
:1028000000F09C804FEA13650FF24016765D4FEAA8
:10281000134506FB05F7C7F1807706FB07F74FEA7C
:10282000D737A7FB03687642C8F58038A7FB06CEEA
:1028300038BFA8F1010807FB08E64FF0000EA6FB21
:10284000028CE6FB03CEDCF1000CCEF1004E38BF6B
:10285000AEF1010EA6FB0C584FF000074FF000053B
:10286000E6FB0E87A1FB08C6A0FB07CE16EB0E0603
:1028700045F10005E1FB076515F1E04E7EBFA4F5CB
:1028800080345FEA46066D4116F1800745F1000588
:102890004FEA17274FEA066647EA0567A6F1DE46C4
:1028A000B6F1805F4FEA15251FD9384624F0010C98
:1028B00005EBC471BCF1FE6F01EB0C1102D8F0BC4A
:1028C000BDE8008124425CBF01F5801E9EEAC47F02
:1028D00002D4F0BCBDE80081244238D4F0BCA1F1A0
:1028E000C041BDE8004100F043B94FEAD22242EABC
:1028F00043524FEAD323A7FB02864FEAD02040EA97
:10290000415007FB03661EEA0E0F4FEAD12105FB7B
:10291000026658BFA6EB0056B6EB00564FEA520EC1
:102920004EEAC37E18EB0E0E56EB530EBDD518EBD8
:1029300002085E417F1C55F10005B6E74FF4801593
:102940004FF000074FF000064FF00008ADE7F0BC75
:102950004FF0000001F1C04101F00041BDE80081ED
:1029600011EA0C1F0CEA131500D00CE013EA0C1F3F
:1029700000F025804FF00000F0BC81EA030101F077
:102980000041BDE80081F0BCBDE8004181EA0301DF
:1029900000F0EEB8F0BCBDE8004170B500F09AF868
:1029A000097EFC3E00F007B881EA03014FF0000009
:1029B00001F00041704781EA030100F0D9B8F0BC92
:1029C000BDE800414FF0000021497047FFFDFBF9D1
:1029D000F7F5F4F2F0EEEDEBE9E8E6E4E3E1E0DE52
:1029E000DDDBDAD8D7D5D4D3D1D0CFCDCCCBCAC8C4
:1029F000C7C6C5C4C2C1C0BFBEBDBCBBBAB9B8B7EB
:102A0000B6B5B4B3B2B1B0AFAEADACABAAA9A8A8DD
:102A1000A7A6A5A4A3A3A2A1A09F9F9E9D9C9C9BAB
:102A20009A99999897979695959493939291919056
:102A30008F8F8E8E8D8C8C8B8B8A898988888787E7
:102A40008685858484838382828181800000FF075C
:102A50000000F87F4FEA1153A3F58063D3F11E0302
:102A6000A8BFD3F1200C08DB4FF0004242EAC1229C
:102A700052EA505232FA03F0704709420BD4102B3D
:102A8000C4BF0020704703F5787CBCF1FF3F05D040
:102A90004FF0FF3070474FF00000704770B500F006
:102AA00019F800BF4992248000207047F0E7B0FA7F
:102AB00080F310FA03F10AD0C3F11D0303F580631C
:102AC0004FEA41504FEA035202EBD12170474FF0D9
:102AD000000070470EF1020E2EF0030E5EF8046B3C
:102AE000364205D4012A43EB030515F5001F12D821
:102AF000012841EB010C1CF5001F0CD80ED14FEA48
:102B0000D17C15F5001F0CEB4C0C0CF1020C08BF2E
:102B10004CEBD37C04E04FF0080C01E04FEAD37C8F
:102B20000CEB4C0526FA05F606F00706B6F1040C88
:102B300006D20EEB860CBDE870404CF0010C6047ED
:102B4000DFE80CF0090B02024FF000414FF00000EB
:102B5000A1F5002170BD19461046012851EB010472
:102B600018BFD4F5001484BF002001F0004170BDEF
:102B70000808A0F500114FEA310170470003030671
:102B800001040602050003051F1C1F1E1F1E1F1F38
:102B90001E1F1E1FB42B0008000000205400000060
:102BA0006C010008082C0008540000208406000076
:102BB000880100080A000000000000000600000074
:102BC00000000000000000C0F9A4B0999282F880D3
:102BD00090FF9286AF00000000000000000000009F
:102BE00000000000000000000000000000000000E5
:102BF00000000000000000000000000000000000D5
:082C00000100000000000000CB
:0400000508000131BD
:00000001FF
