:020000040800F2
:10000000D8060020CD0100086D0D0008450A000843
:10001000690D000881030008F120000800000000BD
:100020000000000000000000000000006115000852
:1000300085030008000000003D0F00084D16000871
:10004000E7010008E7010008E7010008E7010008F0
:10005000E7010008E701000889030008E70100083C
:10006000C1030008FD03000891040008E70100082F
:10007000E7010008E7010008E7010008E7010008C0
:10008000E7010008E7010008E7010008E7010008B0
:10009000E7010008E7010008E7010008E7010008A0
:1000A000E7010008E7010008E7010008E701000890
:1000B000C5160008111700084D190008E7010008CF
:1000C000E7010008E7010008E7010008E701000870
:1000D000E7010008F51F0008E7010008E701000834
:1000E000E7010008E7010008E7010008E701000850
:1000F000E7010008E7010008E7010008E701000840
:10010000E7010008E7010008191A0008E7010008E4
:10011000E7010008E7010008E7010008B11B00083B
:10012000E7010008E7010008E7010008E70100080F
:1001300000F002F800F03AF80AA090E8000C8244BF
:100140008344AAF10107DA4501D100F02FF8AFF29C
:10015000090EBAE80F0013F0010F18BFFB1A43F0A5
:1001600001031847FC2900001C2A0000103A24BF94
:1001700078C878C1FAD8520724BF30C830C144BF0C
:1001800004680C607047000000230024002500264E
:10019000103A28BF78C1FBD8520728BF30C148BFEA
:1001A0000B6070471FB51FBD10B510BD00F031F8D2
:1001B0001146FFF7F7FF01F0F9FF00F04FF803B425
:1001C000FFF7F2FF03BC00F057F800000948804732
:1001D00009480047FEE7FEE7FEE7FEE7FEE7FEE729
:1001E000FEE7FEE7FEE7FEE704480549054A064B41
:1001F000704700006516000831010008D800002093
:10020000D8060020D8020020D8020020704770478E
:100210007047754600F02CF8AE4605006946534617
:1002200020F00700854618B020B5FFF7DDFFBDE8D8
:1002300020404FF000064FF000074FF000084FF04D
:10024000000B21F00701AC46ACE8C009ACE8C009DE
:10025000ACE8C009ACE8C0098D46704710B504464B
:10026000AFF300802046BDE81040FFF7A8BF0000B4
:10027000004870477400002001491820ABBEFEE71B
:1002800026000200704710B500F006FC10BD70B5E6
:100290000446002600F0B2FC2546E11704EB11618C
:1002A0000912A02202EB4101C8B200F073FC00F079
:1002B000F1FCE11704EB11610912A4EB0121C8B2B2
:1002C00000F068FC00F0E6FC00F098FCA12000F0D3
:1002D00061FC00F0DFFC002000F024FC064600F08A
:1002E000B3FC304670BD70B504460E4600F086FC87
:1002F0002546E11704EB11610912A02202EB41012E
:10030000C8B200F047FC00F0C5FCE11704EB116136
:100310000912A4EB0121C8B200F03CFC00F0BAFCC9
:10032000304600F037FC00F0B5FC00F08DFC0A20F0
:1003300001F000FF70BD10B5012000F04DFE00205F
:1003400000F04AFE10BD000008B5014600200090F4
:10035000034800900098084400900098008808BD69
:10036000006C004008B500220092044A0092009AF6
:1003700002440092009A116008BD0000006C004029
:1003800000BFFEE77047000010B5012000F022F921
:1003900080B1022001F0ECFE0748006820B9074850
:1003A0000068401C05490860012000F0ADF80120FC
:1003B00000F0B0F810BD0000000121423000002024
:1003C00010B5042000F006F988B1012001F0B2FE5A
:1003D0000748006828B9002006490870012006492E
:1003E0000870042000F090F8042000F093F810BD8D
:1003F00008812242060000204300002010B508209A
:1004000000F0E8F8002835D0012001F093FE1A48EA
:10041000006848BB0120194908700121184801F003
:10042000DFFB01201749087017480068401C164977
:1004300008600846006800280DDD084600680628A8
:1004400009DA062008601148008840F001000F49D1
:10045000088002F055F90C480068B0F5967F03DB80
:100460004FF4967008490860082000F04DF8082005
:1004700000F050F810BD00000C8121423700002030
:100480000008004006000020000000202800002096
:1004900010B5102000F09EF840B3012001F04AFE94
:1004A00013480068E0B90120124908700121124880
:1004B00001F096FB01201149087011480068401EA8
:1004C0000F49086008460068062809DA002008601D
:1004D0000C48008820F001000A49088002F010F959
:1004E000102000F011F8102000F014F810BD0000EA
:1004F0001081214236000020000800400600002044
:10050000000000202800002001490860704700001A
:1005100014040140014908607047000014040140C0
:100520001CB50121084600F037FD0120FFF7F2FF5E
:1005300000208DF804000C208DF8050001200090AB
:100540008DF80600684600F059F80021084600F0D2
:1005500081F91020FFF7DEFF00208DF804000C2049
:100560008DF805001020009001208DF806006846E7
:1005700000F044F80421012000F06CF90820FFF796
:10058000C9FF00208DF804000C208DF8050008201C
:10059000009001208DF80600684600F02FF8032136
:1005A000012000F057F90420FFF7B4FF00208DF878
:1005B00004000C208DF805000420009001208DF827
:1005C0000600684600F01AF80221032000F042F904
:1005D0001CBD0000014600200022074B1B6803EAF7
:1005E0000102054B14331B680B4013B10AB1012003
:1005F00000E0002070470000000401400021234972
:100600008279002A3AD00A46126803689A430B4658
:100610001A600A1D126803689A430B1D1A6002795A
:1006200011440A6803681A430A60184A08321268BB
:1006300003689A43154B08331A601A1D1268036841
:100640009A43124B0C331A604279102A0ED11A1FAA
:10065000126803681A430D4B08331A601A1D12689A
:1006600003681A43094B0C331A600DE007494279BD
:1006700011440A6803681A430A6005E002791144CC
:100680000A6803689A430A6070470000000401404A
:100690000549096821F01001034A116011460968F3
:1006A0000143116070470000002002400146002015
:1006B000034A106800F038000843106070470000DB
:1006C0000020024008B501215D4800F06FF94FF4A9
:1006D000C850ADF8000010208DF8030003208DF8FD
:1006E00002006946574800F0D5F842F20300ADF821
:1006F000000010208DF8030003208DF802006946E9
:10070000514800F0C7F84FF40070ADF80000032026
:100710008DF8020018208DF803006946494800F062
:10072000B9F84FF48060ADF8000004208DF80300A4
:100730006946444800F0AEF84FF41070ADF8000080
:1007400003208DF8020010208DF8030069463E4812
:1007500000F0A0F84FF40040ADF8000003208DF841
:10076000020010208DF803006946384800F092F826
:100770004FF4E050ADF8000003208DF80200102087
:100780008DF803006946304800F084F84FF40040CB
:10079000ADF8000003208DF8020010208DF8030052
:1007A0006946284800F076F80120ADF8000048209E
:1007B0008DF803006946234800F06CF81820ADF866
:1007C000000048208DF803006946204800F062F8D8
:1007D0000420ADF8000048208DF8030069461C484D
:1007E00000F058F88020ADF8000003208DF80200DA
:1007F00010208DF803006946144800F04BF8C8201B
:10080000ADF8000048208DF8030069460D4800F05F
:1008100041F83020ADF8000048208DF8030069460B
:10082000094800F037F847F20100ADF80000482011
:100830008DF803006946054800F02CF808BD00005B
:10084000000230000008014000100140000C01408F
:100850000014014030B500228B071C0F0F2303FA50
:1008600004F20B4B8C1053F824309343084C8D103A
:1008700044F8253023468C1053F824308C07240F7D
:1008800000FA04F42343024C8D1044F8253030BDA7
:10089000080001402DE9F041024600250026002015
:1008A00000230024002791F803C00CF00F0591F8F5
:1008B00003C00CF0100CBCF1000F03D091F802C083
:1008C0004CEA050591F800C0BCF1000F31D0146866
:1008D00000202BE04FF0010C0CFA00F3B1F800C03F
:1008E0000CEA03069E4220D183004FF00F0C0CFA55
:1008F00003F7BC4305FA03FC4CEA040491F803C077
:10090000BCF1280F06D14FF0010C0CFA00FCC2F824
:1009100014C00AE091F803C0BCF1480F05D14FF0B4
:10092000010C0CFA00FCC2F810C0401C0828D1D3FE
:100930001460B1F800C0BCF1FF0F34DD5468002032
:100940002EE000F1080C4FF0010808FA0CF3B1F8A2
:1009500000C00CEA03069E4221D183004FF00F0C29
:100960000CFA03F7BC4305FA03FC4CEA040491F8C3
:1009700003C0BCF1280F05D100F1080C08FA0CF8EF
:10098000C2F8148091F803C0BCF1480F07D100F100
:10099000080C4FF0010808FA0CF8C2F81080401C4F
:1009A0000828CED35460BDE8F0810000F0B50A46B7
:1009B000002300240021002500F00046B6F1004F7E
:1009C00002D11D4EF16901E01B4E7168C0F3034571
:1009D00083B200F44016B6F5401F08D121F07061D3
:1009E000154E766826F07066134F7E6012E000F4B4
:1009F0008016B6F5801F06D1032606FA05F4A1433A
:100A000041F0706106E0460D360103FA06F6B14387
:100A100041F0706122B1460D360103FA06F631430A
:100A200000F00046B6F1004F02D1034EF16101E043
:100A3000014E7160F0BD000000000140416170474F
:100A40000161704700BFFEE710B500200F49086044
:100A50000F48006820F0F0000D4908600846006863
:100A600040F03000086000200A49C1F8A4010220CB
:100A700001F07EFB012005490860052001F078FBAC
:100A800000200449C1F8A00110BD0000A08121424E
:100A9000040C0140008021420C48806940F00800AD
:100AA0000A4988610A48006820F0FF000849086088
:100AB0000846006840F033000860054808300068C8
:100AC00040F440700249083108607047001002404D
:100AD000040C014010B500200F4908600F48006861
:100AE00020F0F0000D4908600846006840F0300032
:100AF000086001200A49C1F8A401022001F038FB76
:100B0000012005490860052001F032FB002004495E
:100B1000C1F8A00110BD0000A0812142040C0140D9
:100B20000080214270B5054600241748006820F077
:100B3000F000154908600846006840F08000086031
:100B4000002616E0002011490860022001F010FB89
:100B500001200F49C1F8A0016006040E0B487C3843
:100B6000006808B1601CC4B2012001F001FB701CD8
:100B7000C6B2082EE6DB15B9FFF7ACFF01E0FFF7C0
:100B800063FF204670BD0000040C0140A08121429B
:100B90000080214270B504461548006820F0F0003E
:100BA000134908600846006840F0300008600020E3
:100BB00010490860002517E0E0090E49091D08608A
:100BC0006006040E022001F0D3FA01200A49C1F8A0
:100BD000A001022001F0CCFA0020064908600220A2
:100BE00001F0C6FA681CC5B2082DE5DB70BD000037
:100BF000040C0140A08121420080214210B50F4821
:100C0000006820F0F0000D4908600846006840F0D8
:100C10003000086001200A4908600A49C1F8A001B3
:100C2000052001F0A5FA002005490860062001F022
:100C30009FFA00200349C1F8A00110BD040C014037
:100C4000A48121420080214210B50F48006820F0A5
:100C5000F0000D4908600846006840F03000086068
:100C600000200A4908600A49C1F8A401062001F0E1
:100C70007FFA0120054908600549C1F8A401062052
:100C800001F076FA10BD0000040C0140A081214261
:100C90000080214210B500241448006820F0F000C4
:100CA000124908600846006840F080000860012092
:100CB0000F49086001F05CFA01200E49C1F8A0015B
:100CC00001F056FA07E0601CC4B2FA2C03DDFFF70E
:100CD000BBFF012010BD0648803800680028F2D113
:100CE0000349091F086000BFF4E70000040C01403D
:100CF000A4812142008021420146CA1701EB927271
:100D00009210A1EB820292B9642091FBF0F200FBF9
:100D1000121050B94FF4C87091FBF0F200FB1210A2
:100D200008B9012070470020FCE70120FAE7002005
:100D3000F8E7000010B54FF480510948FFF780FE36
:100D40004FF400610648FFF77BFE4FF480610448D2
:100D5000FFF776FE4FF400410248FFF771FE10BD29
:100D6000001001400008014000BFFEE7704708B5D1
:100D70004FF4A06000F0D2F806208DF800000020AB
:100D80008DF8010001208DF802008DF803006846FF
:100D900000F08CF809208DF8000002208DF8010089
:100DA00001208DF802008DF80300684600F07EF8FF
:100DB0000A208DF8000002208DF8010001208DF836
:100DC00002008DF80300684600F070F808208DF8E6
:100DD000000001208DF8010000208DF802000120A4
:100DE0008DF80300684600F061F825208DF80000BA
:100DF00000208DF8010001208DF802008DF803001D
:100E0000684600F053F81D208DF8000001208DF891
:100E100001008DF802008DF80300684600F046F8E6
:100E20001C208DF8000000208DF801008DF80200D4
:100E300001208DF80300684600F038F832208DF864
:100E4000000002208DF8010001208DF802008DF8CD
:100E50000300684600F02AF81E208DF800000320E9
:100E60008DF801008DF8020001208DF8030068461E
:100E700000F01CF836208DF8000001208DF80100EC
:100E80008DF802008DF80300684600F00FF8372057
:100E90008DF8000001208DF801008DF802008DF81A
:100EA0000300684600F002F808BD000070B500219C
:100EB00000230F22C47804B3154C246804F4E064C2
:100EC000C4F5E064210AC1F10403CA40447804FA7D
:100ED00003F184781440214309010E4C0678A15592
:100EE000047804F01F050124AC4005786D11AD00B5
:100EF00005F1E025C5F8004109E0047804F01F057C
:100F00000124AC40044D0678761145F8264070BDAA
:100F10000CED00E000E400E080E100E00249014364
:100F2000024A1160704700000000FA050CED00E075
:100F3000014908627047000000000E42704700003F
:100F400001460020034A506820F4404008435060A6
:100F5000704700000010024029B1064AD2690243DE
:100F6000044BDA6104E0034AD2698243014BDA613F
:100F7000704700000010024029B1064A126902437E
:100F8000044B1A6104E0034A12698243014B1A615F
:100F9000704700000010024029B1064A92690243DE
:100FA000044B9A6104E0034A92698243014B9A61BF
:100FB000704700000010024029B1064AD26802437F
:100FC000044BDA6004E0034AD2688243014BDA60E2
:100FD000704700000010024001490860704700009F
:100FE0004004424210B54FF4803000F069F800F040
:100FF000EDF80446012C27D1002000F055F8A0029E
:1010000000F09EF8002000F0A7F80020FFF798FFFE
:101010000220FFF74BFB1020FFF73AFB4FF4E011E3
:10102000200400F0ABF8012000F0A2F800BF392046
:1010300000F014F80028FAD0022000F0BBF800BF3E
:1010400000F02AF80828FBD101213C20FFF7A4FF7B
:1010500001210846FFF7A0FF10BD000010B50146B2
:101060000022002300204A11012A02D1094C2368E2
:1010700006E0022A02D1074C236A01E0054C636AAC
:1010800001F01F02012494401C400CB1012000E03B
:10109000002010BD001002400248406800F00C0023
:1010A000704700000010024001460020034A5068CB
:1010B00020F0F0000843506070470000001002402C
:1010C0001149096821F480310F4A116011460968FD
:1010D00021F480211160B0F5803F03D0B0F5802F5E
:1010E0000ED106E00849096841F48031064A1160D2
:1010F00007E00549096841F4A021034A116000E0B6
:1011000000BF00BF704700000010024000210B4AE2
:1011100011700A4A203A82F82010012802D00428CF
:1011200008D103E00121054A117004E00521034ABA
:10113000117000E000BF00BF7047000020100240A7
:1011400001460020034A506820F4E06008435060E4
:10115000704700000010024001460020034A50681A
:1011600020F4605040EAC100506070470010024017
:101170000149086670470000000042420246002014
:10118000044B586820F47C1042EA01031843014BD9
:101190005860704700100240014908607047000025
:1011A0003C0442420249096A0143014A1162704704
:1011B0000010024001460020034A506820F003005E
:1011C00008435060704700000010024038B500200E
:1011D00000900024002500BF3120FFF73FFF0546A7
:1011E0000098401C00900098B0F5A06F01D0002D31
:1011F000F2D03120FFF732FF08B1012400E00024D3
:10120000204638BD10B501214FF0C050FFF7A4FEB5
:101210000120FFF78DFEFFF78EF80120FFF776FF24
:1012200000BF4120FFF71AFF0028FAD04FF480706A
:10123000FFF7B8FF0120FFF7AFFF00F07FF900F0E4
:1012400073F90121084600F0E3F800F06DF947F664
:10125000FF7000F059F900F067F910BD03480088ED
:1012600040F0100001490880704700000428004049
:10127000034800884FF6EF71084001490880704725
:101280000428004070B500260024002500F07AF8FC
:1012900006463848B6FBF0F437480088A0423CD0F8
:1012A00035490C8040F2B27510E02846FFF724FD66
:1012B00040B1B4F5B77F02D3A4F5B77404E0681C5D
:1012C00085B206E0A4F26D14681C85B2B4F5B67F51
:1012D000EBD800BF29488580002516E0274988887B
:1012E000FFF70AFD30B1012D04D11D2C01D31D3CA7
:1012F00009E00CE02248405DA04203D82048405D50
:10130000241A00E003E0681C85B21C2CE6D200BF62
:10131000681C1A498871601CC8711648B6FBF0F148
:1013200000FB11644FF46160B4FBF0F013490870E6
:101330004FF46160B4FBF0F100FB11403C21B0FBC5
:10134000F1F00E4948704FF46160B4FBF0F100FB1E
:1013500011403C21B0FBF1F201FB120007498870FB
:101360000B46DA799979988800F016F803490872E3
:10137000002070BD805101004E0000206800002058
:10138000542B0008002103480188001F008841EA0F
:10139000004070471C280040F0B503460C46154637
:1013A000642093FBF0F0C6B2642093FBF0F700FBDF
:1013B0001730C1B2132E02DD01F16400C1B208463C
:1013C000CF1701EB977701EBA707BAB2072092FB83
:1013D000F0F700FB172082B25719601EDFF82CC00F
:1013E0001CF80000384482B2CF1701EB9777BF108A
:1013F000A1EB87071FB9032C01DA501E82B2072028
:1014000092FBF0F700FB1720C0B2F0BD482B00089C
:1014100029B1064A12880243044B1A8004E0034AA9
:1014200012888243014B1A80704700000028004058
:101430002DE9F05F06460F4690469946DDE90AAB76
:10144000002440F2B270864203DB40F6330086424D
:1014500002DD0120BDE8F09F40F2B2750AE02846A7
:10146000FFF74AFC10B11D48044401E01C48044445
:10147000681C85B2B542F2DB781EC7B2002510E0C9
:101480001848405D40F2A321484304EBC0143046A5
:10149000FFF732FC18B1012D01D113480444681C38
:1014A00085B2BD42ECDBA8F1010040F2A321484324
:1014B00004EBC014C9EB4910C0EB092004EB001485
:1014C000CAEB0A1004EB80045C4400F02DF82046BF
:1014D00000F00CF800F028F80020BBE70085E201DE
:1014E0008033E101542B00088051010000B5024611
:1014F000FFF7B4FE100C03490880091D0A80FFF7AE
:10150000B7FE00BD1828004000B50246FFF7A6FE52
:10151000C2F3034003490880091D0A80FFF7A8FEB3
:1015200000BD00000828004000BF0348008800F00C
:1015300020000028F9D070470428004007480088A0
:101540004FF6F77108400549088000BF034800883E
:1015500000F008000028F9D070470000042800407F
:10156000704710B500F002F810BD00000CB5002067
:10157000019000903348006840F4803031490860A1
:1015800000BF3048006800F4003000900198401C13
:101590000190009818B90198B0F5A06FF1D12948D1
:1015A000006800F4003010B10120009001E000203C
:1015B00000900098012843D12348006840F01000B3
:1015C000214908600846006820F0030008600846CA
:1015D000006840F0020008601A48406819494860F5
:1015E0000846406848600846406840F480604860AB
:1015F0000846406820F47C1048600846406840F483
:10160000E81048600846006840F08070086000BF3D
:101610000C48006800F000700028F9D009484068C4
:1016200020F00300074948600846406840F0020087
:10163000486000BF0348406800F00C000828F9D15A
:101640000CBD000000100240002002400448006869
:1016500020B103480068401E01490860704700003F
:101660002400002010B51348006840F00100114923
:10167000086008464068104908400E49486008461E
:1016800000680E4908400B4908600846006820F4CD
:10169000802008600846406820F4FE0048604FF44F
:1016A0001F008860FFF75DFF4FF00060044908608D
:1016B00010BD0000001002400000FFF8FFFFF6FE22
:1016C00008ED00E04FF08040008A00F0010080B19A
:1016D0000C48006808B9012000E0002009490860B2
:1016E0000948D0F8980108B9012000E00020074916
:1016F00008604FF08040008A20F001004FF08041E8
:1017000008827047BC812142000022429801224297
:101710002DE9F0418248008800F0010000287CD0CB
:1017200080480078401C7F490870084600780E28E1
:1017300001DB0A2008707C48007830B1012807D00E
:10174000022809D003280DD109E0784804880AE06E
:101750007748008884B206E07648048803E076483B
:10176000048800E000BF00BF6E4800780A2838D126
:101770004FF47A7094FBF0F00A2190FBF1F201FB38
:10178000120000F0FF084FF400416C48FFF758F9D1
:101790006548007830B101280AD002280DD003280E
:1017A00016D110E06648807A66490880088010E00B
:1017B0006348C07A634908800BE0614810F808006C
:1017C0006049088005E05E48007B5E49088000E0D3
:1017D00000BF00BF00F058FF4FF480515A48FFF798
:1017E0002DF9504800780B284ED1642094FBF0F07E
:1017F0000A2190FBF1F201FB1200C5B24FF48051B7
:101800005148FFF71DF94848007838B101280ED03B
:10181000022815D0032821D11BE079E015B94848EA
:10182000807A01E04648405D4649088017E015B9D6
:101830004348807A01E04248405D424908800EE01A
:1018400015B93F48807A01E03D48405D3D49088038
:1018500005E03B48407B3B49088000E000BF00BFFB
:1018600031480078022804D13648008820F08000F2
:1018700001E0344800883349088000F005FF4FF448
:1018800000613148FFF7DAF8264800780C2825D1A6
:101890000A2094FBF0F00A2190FBF1F201FB120008
:1018A000C7B24FF400612848FFF7CAF82448C05D6A
:1018B000244908801C480078022804DA0846008879
:1018C00020F0800001E01F4800881E49088000F0D9
:1018D000DBFE4FF480611C48FFF7B0F81148007838
:1018E0000D2815D10A2094FBF0F100FB1140C6B27F
:1018F0004FF480611448FFF7A3F81148805D114947
:10190000088000F0C1FE4FF400410C48FFF796F844
:101910000348008820F0010001490880BDE8F081FB
:1019200010040040350000200600002004000020C4
:10193000000000200C0000200E00002000080140E4
:10194000130000202A0000200010014010B52C4890
:10195000008800F0010000284BD02A480068401C95
:101960002849086008460068142842D926480078AB
:1019700020B3084600680A21B0FBF1F0234909684A
:101980000844224908600846006800280DDD084622
:101990000068062809DA062008601D48008840F023
:1019A00001001B49088000F0ABFE18480068B0F544
:1019B000967F03DB4FF49670144908601548007851
:1019C000B8B1104800680A21B0FBF1F00F4909686E
:1019D000081A0E49086008460068062809DA00203F
:1019E00008600B48008820F001000949088000F0D9
:1019F00087FE0348008820F001000149088010BDDF
:101A000010080040380000203700002000000020AF
:101A100028000020360000202DE9F0474FF0000993
:101A20005448008800F0010000287DD0524800682A
:101A30005249534A127841F8220051480078401C1C
:101A40004F49087000204C4908604E48007888B122
:101A50004D48007870B94D480078401C4B490870DB
:101A600008460078142805DD012047490870002049
:101A70004649087042480078052821DD0020404989
:101A800008708146002407E03C4830F824004844B0
:101A90001FFA80F9601CC4B2052CF5DB052099FB08
:101AA000F0F01FFA80F9484600F0E7FF0746384A91
:101AB000384B00F05DFE054600F0B2FF3649088065
:101AC00036480078012822D135480068142190FB5F
:101AD000F1F038B13248006890FBF1F03149096803
:101AE000084402E02F480068401C2E490860084660
:101AF00000682B490968884209DB294800682949A0
:101B0000086000202549087001201E4908702648F9
:101B10000078012825D122480068142190FBF1F0BB
:101B200048B11F48006800E01BE090FBF1F01D4940
:101B30000968081A02E01B480068401E194908603D
:101B40000846006806280CDC0620086000201649BC
:101B500008701648008820F001001449088000F041
:101B6000CFFD0448008820F0010002490880BDE84C
:101B7000F0870000100C00403000002054000020CE
:101B8000340000203D000020400000202D000020F7
:101B90009A99999999193D40040000203C00002031
:101BA00000000020080000203E0000202800002047
:101BB000044800880348008820F00100014908809B
:101BC000704700001014004021B1028842F08002EA
:101BD000028004E002884FF67F731A40028070474B
:101BE00021B1028842F00102028004E002884FF62F
:101BF000FE731A400280704710B50446684884425C
:101C000008D10121C014FFF7D7F90021E014FFF734
:101C1000D3F9C4E0B4F1804F08D101210846FFF7A1
:101C2000ABF900210120FFF7A7F9B8E05D48844235
:101C300008D101210220FFF79FF900210220FFF7C0
:101C40009BF9ACE05848844208D101210420FFF7F9
:101C500093F900210420FFF78FF9A0E05348844254
:101C600008D101210820FFF787F900210820FFF79C
:101C700083F994E04E48844208D101211020FFF7F7
:101C80007BF900211020FFF777F988E0494884426A
:101C900008D101212020FFF76FF900212020FFF754
:101CA0006BF97CE04448844208D101214014FFF7DD
:101CB00083F900216014FFF77FF970E03F48844208
:101CC00009D10121C804FFF777F900214FF4002062
:101CD000FFF772F963E03A48844209D1012108050F
:101CE000FFF76AF900214FF48010FFF765F956E01D
:101CF0003448844209D101214805FFF75DF90021EC
:101D00004FF40010FFF758F949E02F48844208D1FA
:101D100001214020FFF730F900214020FFF72CF986
:101D20003DE02A48844208D101218020FFF724F9B0
:101D300000218020FFF720F931E02548844208D1B6
:101D400001218015FFF718F90021A015FFF714F9FC
:101D500025E02048844209D101210804FFF72CF92D
:101D600000214FF48030FFF727F918E01A48844229
:101D700009D101214804FFF71FF900214FF4003079
:101D8000FFF71AF90BE01548844208D101218804B5
:101D9000FFF712F900214FF48020FFF70DF910BD75
:101DA000002C01400004004000080040000C0040EE
:101DB000001000400014004000340140004C01407D
:101DC000005001400054014000180040001C004039
:101DD0000020004000400140004401400048014014
:101DE0001AB183890B43838102E083898B4383810A
:101DF00070470000002202881D4B98420ED01D4BF8
:101E000098420BD0B0F1804F08D01B4B984205D0C0
:101E10001A4B984202D01A4B984204D14FF68F7356
:101E20001A404B881A43174B984207D0164B9842DA
:101E300004D04FF6FF431A40CB881A4302808B88A8
:101E400083850B8803850A4B98420BD0094B984237
:101E500008D00E4B984205D00D4B984202D00D4B46
:101E6000984201D10B7A03860123838270470000D8
:101E7000002C0140003401400004004000080040F4
:101E8000000C0040001000400014004000400140E1
:101E900000440140004801400EB501210846FFF70B
:101EA0005BF84FF08040FFF7A7FE12480068124928
:101EB000B1FBF0F0401E80B2ADF804000820ADF890
:101EC00000000020ADF80600ADF8020069464FF0B2
:101ED0008040FFF78FFF01218807FFF775FE012281
:101EE00011469007FFF77CFF01218807FFF778FE76
:101EF0000EBD0000000000204C3B05000EB5012186
:101F00000220FFF729F81048FFF776FE0920ADF808
:101F1000040041F61F40ADF800000020ADF80600B7
:101F2000ADF8020069460848FFF764FF0121064842
:101F3000FFF74AFE012211460348FFF751FF012136
:101F40000148FFF74DFE0EBD000400400EB5012113
:101F50000420FFF701F81148FFF74EFE4FF47A70A6
:101F6000ADF8040041F61F40ADF800000020ADF8C8
:101F70000600ADF8020069460848FFF73BFF012163
:101F80000648FFF721FE012211460448FFF728FF0B
:101F900000210248FFF724FE0EBD000000080040AB
:101FA0000EB501210820FEF7D7FF1148FFF724FEE8
:101FB00040F2E730ADF8040041F61F40ADF80000F4
:101FC0000020ADF80600ADF8020069460848FFF7AA
:101FD00011FF01210648FFF7F7FD012211460448D1
:101FE000FFF7FEFE01210248FFF7FAFD0EBD0000DB
:101FF000000C004010B540F22551124800F049F89D
:10200000012804D140F225510E4800F026F840F294
:1020100027710C4800F03DF8012804D140F22771E7
:10202000084800F01AF80821064800F025F80128B1
:1020300006D10821034800F007F8024800F053F8E1
:1020400010BD00000038014001F40072B2F5007FBD
:1020500000D100BFCA430280704710B500220023A0
:1020600040F66A14A14200D100BF0A120124944034
:10207000A3B2DC43048010BD02460020B1F5007F0E
:1020800000D100BF13880B400BB1012000E00020FD
:10209000704770B50246002400230025002040F65A
:1020A0006A16B14200D100BFC1F3421501F01F030F
:1020B000012606FA03F3012D02D19689334006E08A
:1020C000022D02D1168A334001E0968A33400C1269
:1020D000012606FA04F41688344013B10CB101202D
:1020E00000E0002070BD01468888C0F308007047FA
:1020F00000BFFEE74FF0E021096921F004014FF035
:10210000E0221161C21700EB5272C2F3C702074B03
:102110001A701946097801EB4102C2EBC1114FF662
:10212000FF7202EAC101024A11807047500000208C
:102130005200002001460D4A12884A434FF0E02326
:102140005A6100229A6101221A6100BF4FF0E02219
:10215000106900F001021AB100F48032002AF5D0B3
:1021600000224FF0E0231A619A617047520000206C
:1021700001460D4A12784A434FF0E0235A6100228B
:102180009A6101221A6100BF4FF0E022106900F04D
:1021900001021AB100F48032002AF5D000224FF07B
:1021A000E0231A619A617047500000201CB5002599
:1021B00000260027FFF756FAFEF714FFFEF782FA13
:1021C000FEF7D5FDFEF7B6FDFFF798FEFFF764FEBC
:1021D000FFF7E6FEFFF7BAFEFEF7A2F94820FFF789
:1021E00089FFFEF750F80120FA490860FA480078A4
:1021F000FA4908800020FA49088000F081FA00F0CE
:1022000043FA0420FEF7A0F8AB2815D0FEF7FAFF3A
:102210000020152103460122CDE9001011464FF49C
:102220007A70FFF705F9AB210420FEF79BF8002137
:102230001020FEF797F808E001214FF0C050FEF79C
:102240008BFE1020FEF780F807460A20FEF71FF8E5
:1022500005466420FEF71BF8064605EB0620E1491B
:102260000860DF48008820F00100DD49088000F0A8
:1022700047FA0120DC490860DC49C1F8BC01DA49B1
:102280000C390860FEF7FEFFD9484078D94908703C
:1022900008460078D8490870EDE1D8480078012850
:1022A0002DD10020D5490870CA490860D44800687B
:1022B00020F00100D24908606420FFF73BFFC948C5
:1022C0000468E01704EB10600012A4EB0020C1B218
:1022D0000A20FEF708F8C3480468E01704EB106012
:1022E000C0F307216420FDF7FEFF0120BF49C1F8BC
:1022F0009C01C348006840F00100C1490860B5482E
:102300008C38006860B1BF48007848B10020BD49F2
:1023100008700021BC48FFF763FC0020BB4908603F
:10232000AC489038006860B1B948007848B10020E6
:10233000B74908700021B448FFF752FC0020B349A8
:102340000860B4480068F8B90520FFF7F3FEB1480B
:102350000068C8B9B0480078B0B90020AF4908702B
:102360000120AD490870AE4908700020AD490870E1
:10237000AD490870AD4908709948008840F00100E7
:102380009749088000F0BCF9A2480068B0B1052068
:10239000FFF7D0FE9F48006880B1A048007868B978
:1023A00000209D4908709E4908709E4908709E490A
:1023B000087001209D4908709849087095480C30B4
:1023C0000068E0B10520FFF7B5FE92480C300068C8
:1023D000A8B1032096490870012096490880002082
:1023E000954908707E48007800F0020038B97C48B2
:1023F000008840F002007A49088000F081F98548A1
:102400000C300068002870D10520FFF793FE81484A
:102410000C300068A8B98848007890B90120864936
:1024200008700020824908706D48007800F00200B2
:1024300038B16B48008820F002006949088000F03C
:102440005FF974480C30006828BB7748007810B3F7
:102450007748007801281ED06248006877490988CB
:10246000401A052806DC754800885E490968401A4C
:10247000052810DD03206E49087002206D49088090
:1024800001206F4908705648008840F00200544906
:10249000088000F035F95F480C30006828BB6248BE
:1024A000007810B34F48006864490988401A05282D
:1024B0001BDC624800884B490968401A052814DC77
:1024C0005F48007888B10020594908705C4908705D
:1024D0004348007800F0020038B14148008820F0FD
:1024E00002003F49088000F00BF9FEF74BFF554909
:1024F0000860084600683C21B0FBF1F201FB1200C5
:1025000010BB5148007801281ED100204E490870A8
:1025100038480078384908703E480068A0B9012062
:10252000FEF706FD1020FDF70FFF401C474908800D
:10253000084601881020FDF715FF1020FDF704FF65
:1025400007460020FEF7F4FC3E4800680A21B0FB75
:10255000F1F201FB120010B101203B490870022F7B
:1025600008D9082033490880032031490870012028
:102570003749087036480078E8B116488C3800684A
:10258000C8B9144890380068A8B9002030490870CC
:1025900027490870FEF736FE002015210346012268
:1025A000CDE9001011464FF47A70FEF741FF00218B
:1025B0001020FDF7D7FE1B48007848B10948006895
:1025C0002449B1FBF0F0401E4FF08041888552E075
:1025D00042E000009C812142130000202A000020DC
:1025E0002800002000000020A40122420080214297
:1025F0006800002044000020450000204300002027
:10260000000401403600002000080040380000208F
:10261000370000200C012142410000204200002030
:102620003C0000203D000020400000203E00002033
:10263000060000200E0000201200002004000020F0
:1026400010000020480000204C0000204600002020
:10265000110000204C3B05000748007810B90748DE
:10266000007840B1064800680649B1FBF0F0401E12
:102670004FF08041888510E63C0000203E0000209D
:10268000080000204C3B050010B5002421E0C4F1F7
:102690000F010120884018490988084028B14FF4EB
:1026A00080511648FEF7CCF904E04FF480511348EE
:1026B000FEF7C4F94FF480711048FEF7C1F96420A9
:1026C000FFF756FD4FF480710C48FEF7B7F9601C18
:1026D000C4B2102CDBDB6420FFF74AFD4FF400612D
:1026E0000648FEF7ADF96420FFF742FD4FF40061A4
:1026F0000248FEF7A3F910BD2A000020000801409F
:1027000010B500241FE0C4F10F01012088401649D4
:102710000988084020B102211448FEF791F903E02E
:1027200002211248FEF78AF94FF400510F48FEF7D4
:1027300087F96420FFF71CFD4FF400510B48FEF7AA
:102740007DF9601CC4B2102CDDDB6420FFF710FDA6
:1027500001210648FEF774F96420FFF709FD012105
:102760000248FEF76BF910BD280000200010014060
:102770002DE9C04130B4DFF8A0C23CEA111418BF03
:102780003CEA131400F0EC8081EA03051CEA111402
:1027900044EAD57418BF1CEA131500F0C780A4EBF7
:1027A00005044FF0004545EAC12145EAC32341EA4B
:1027B000505143EA525304F17F74994204F50034B6
:1027C0004FEAC0204FEAC22208BF904200F09C802E
:1027D0004FEA13650FF24016765D4FEA134506FB8C
:1027E00005F7C7F1807706FB07F74FEAD737A7FB56
:1027F00003687642C8F58038A7FB06CE38BFA8F13B
:10280000010807FB08E64FF0000EA6FB028CE6FB72
:1028100003CEDCF1000CCEF1004E38BFAEF1010E5C
:10282000A6FB0C584FF000074FF00005E6FB0E87A3
:10283000A1FB08C6A0FB07CE16EB0E0645F100056E
:10284000E1FB076515F1E04E7EBFA4F580345FEA39
:1028500046066D4116F1800745F100054FEA17273E
:102860004FEA066647EA0567A6F1DE46B6F1805FE5
:102870004FEA15251FD9384624F0010C05EBC47129
:10288000BCF1FE6F01EB0C1102D8F0BCBDE8008179
:1028900024425CBF01F5801E9EEAC47F02D4F0BCD6
:1028A000BDE80081244238D4F0BCA1F1C041BDE8AC
:1028B000004100F043B94FEAD22242EA43524FEAC4
:1028C000D323A7FB02864FEAD02040EA415007FB02
:1028D00003661EEA0E0F4FEAD12105FB026658BFC0
:1028E000A6EB0056B6EB00564FEA520E4EEAC37EF8
:1028F00018EB0E0E56EB530EBDD518EB02085E41D9
:102900007F1C55F10005B6E74FF480154FF0000726
:102910004FF000064FF00008ADE7F0BC4FF00000AC
:1029200001F1C04101F00041BDE8008111EA0C1F36
:102930000CEA131500D00CE013EA0C1F00F0258000
:102940004FF00000F0BC81EA030101F00041BDE856
:102950000081F0BCBDE8004181EA030100F0EEB85F
:10296000F0BCBDE8004170B500F09AF8097EFC3E6D
:1029700000F007B881EA03014FF0000001F00041C8
:10298000704781EA030100F0D9B8F0BCBDE800410E
:102990004FF0000021497047FFFDFBF9F7F5F4F215
:1029A000F0EEEDEBE9E8E6E4E3E1E0DEDDDBDAD8EA
:1029B000D7D5D4D3D1D0CFCDCCCBCAC8C7C6C5C448
:1029C000C2C1C0BFBEBDBCBBBAB9B8B7B6B5B4B35F
:1029D000B2B1B0AFAEADACABAAA9A8A8A7A6A5A44A
:1029E000A3A3A2A1A09F9F9E9D9C9C9B9A9999980E
:1029F0009797969595949393929191908F8F8E8EB1
:102A00008D8C8C8B8B8A898988888787868585843D
:102A100084838382828181800000FF070000F87F29
:102A20004FEA1153A3F58063D3F11E03A8BFD3F17E
:102A3000200C08DB4FF0004242EAC12252EA505219
:102A400032FA03F0704709420BD4102BC4BF0020A8
:102A5000704703F5787CBCF1FF3F05D04FF0FF30A5
:102A600070474FF00000704770B500F019F800BFD4
:102A70004992248000207047F0E7B0FA80F310FA02
:102A800003F10AD0C3F11D0303F580634FEA4150FF
:102A90004FEA035202EBD12170474FF0000070471C
:102AA0000EF1020E2EF0030E5EF8046B364205D4D2
:102AB000012A43EB030515F5001F12D8012841EB4D
:102AC000010C1CF5001F0CD80ED14FEAD17C15F576
:102AD000001F0CEB4C0C0CF1020C08BF4CEBD37C30
:102AE00004E04FF0080C01E04FEAD37C0CEB4C05FE
:102AF00026FA05F606F00706B6F1040C06D20EEB30
:102B0000860CBDE870404CF0010C6047DFE80CF02B
:102B1000090B02024FF000414FF00000A1F5002127
:102B200070BD19461046012851EB010418BFD4F5B9
:102B3000001484BF002001F0004170BD0808A0F51A
:102B400000114FEA31017047000303060104060239
:102B5000050003051F1C1F1E1F1E1F1F1E1F1E1FFB
:102B6000802B000800000020540000006C010008C9
:102B7000D42B0008540000208406000088010008BF
:102B80000A00000000000000060000000000000035
:102B9000000000C0F9A4B0999282F88090FF92865C
:102BA000AF00000000000000000000000000000076
:102BB0000000000000000000000000000000000015
:102BC0000000000000000000000000000100000004
:042BD0000000000001
:0400000508000131BD
:00000001FF
